:04000000BFEF08F056
:100F00000049727269676174696F6E2053797374F6
:100F1000656D2050726F6A65637400456D6265642B
:050F2000444E410000F9
:100F2600016E030EE82EFED700F001A89DEF07F034
:100F36009FEF07F0A2EF07F08688A3EF07F08698E9
:100F460001AAA8EF07F0AAEF07F0ADEF07F0868A2F
:100F5600AEEF07F0869A01ACB3EF07F0B5EF07F0F6
:100F6600B8EF07F0868CB9EF07F0869C01AEBEEFAE
:100F760007F0C0EF07F0C3EF07F0868EC4EF07F067
:100F8600869E8782879201A0CBEF07F0CDEF07F010
:100F9600D0EF07F08688D1EF07F0869801A2D6EF4A
:100FA60007F0D8EF07F0DBEF07F0868ADCEF07F0F3
:100FB600869A01A4E1EF07F0E3EF07F0E6EF07F00A
:100FC600868CE7EF07F0869C01A6ECEF07F0EEEFC4
:100FD60007F0F1EF07F0868EF2EF07F0869E878224
:100FE60087921200000E876E000E866E000E836ECC
:100FF600000E846E000E856E000E8C6E000E886EDE
:10100600000E896E000E8A6E000E8B6E000E0F01AA
:10101600266F000E216F000E196F000E2E6F000E48
:10102600116F000E256F000E2D6F000E186F000E4B
:10103600106F000E206F000E2C6F000E0F6F000E4B
:10104600176F000E1F6F000E246F0E6916691E695A
:101056002369070E2B6F0D6915691D6922690F0E2D
:101066002A6F120087948792050E026EDE0EE82E16
:10107600FED7022EFCD78688868A869C869E878225
:101086008792FA0E00D0E82EFDD787828792100E3F
:10109600E82EFED700D087828792100EE82EFED764
:1010A60000D08698868A869C869E87828792280E9E
:1010B60093EC07F00E0E93EC07F0B6EC08F0060E74
:1010C60093EC07F01200878473EF08F002C0F6FF76
:1010D60003C0F7FF0800F55093EC07F0024A032A15
:1010E60002C0F6FF03C0F7FF0800F5500009D8A4B8
:1010F6007FEF08F081EF08F069EF08F01200D4ECFA
:1011060008F035EC08F0000ECDEC08F01B0E026E70
:101116000F0E036E66EC08F0000EC6EC08F0010E2A
:10112600026E0F0E036E66EC08F098EF08F000EF03
:1011360000F0000E0E01E16F000EE26F000EE36F8D
:10114600000EE46F000EE56F000EE66F1200600EF3
:101156000E01D86F000EDA6F000EDC6F000EDE6F28
:10116600000EDD6F12008794010E93EC07F0A60EB9
:10117600E82EFED700D01200000EF86E0F0EF76EA6
:10118600000182EF08F0026E87940250C00F93ECC4
:1011960007F01200026E87940250800F93EC07F05E
:1011A60012009CEC08F0F5EC07F0AAEC08F012002F
:020000040030CA
:0C000000ECFFFFFF9FFFFFFFFFFFFFFF73
:00000001FF
