:0400000046EF14F0C3
:100F00000020202020456D626564444E4120202051
:100F100020002049727269676174696F6E2053798D
:100F20007320004D6F6973743A200054656D703AF8
:100F30002000503A4F666600503A204F6E004163E1
:0D0F40007420004F4B212100253364000078
:100F4E002B50800B346E2B502B243A6E2AAEB2EF00
:100F5E0007F0B4EF07F0B5EF07F03A803A50D8B487
:100F6E00BBEF07F0BDEF07F0D0EF07F03A28D8A49B
:100F7E00C3EF07F0C5EF07F0CDEF07F0000E286EB8
:100F8E00000E296E000E2A6E000E2B6E2A8ED8EFE2
:100F9E0007F0000E286E000E296E000E2A6E000E4F
:100FAE002B6E2F50800B341A2F502F24396E2EAEED
:100FBE00E3EF07F0E5EF07F0E6EF07F03980395081
:100FCE00D8B4ECEF07F0EEEF07F001EF08F0392898
:100FDE00D8A4F4EF07F0F6EF07F0FEEF07F0000EDF
:100FEE002C6E000E2D6E000E2E6E000E2F6E2E8E9F
:100FFE0009EF08F0000E2C6E000E2D6E000E2E6EF8
:10100E00000E2F6E3950D8B40FEF08F011EF08F024
:10101E0019EF08F03A50D8A417EF08F019EF08F0BE
:10102E0023EF08F0000E286E000E296E000E2A6EB9
:10103E00000E2B6EBBEF09F02E502802F3CF3FF0BF
:10104E00F4CF40F03F50356E366A376A386A4050FA
:10105E003B6E3C6A3D6A3E6A2D502902F3CF3FF04B
:10106E00F4CF40F03F503526000E3622372238227C
:10107E0040503B26000E3C223D223E222C502A029E
:10108E00F3CF3FF0F4CF40F03F503526000E36221E
:10109E003722382240503B26000E3C223D223E2273
:1010AE0037C038F036C037F035C036F0356A2C50C0
:1010BE002902F3CF3FF0F4CF40F03F503526405099
:1010CE003622000E3722000E38222D502802F3CF82
:1010DE003FF0F4CF40F03F50352640503622000E00
:1010EE003722000E382237C038F036C037F035C000
:1010FE0036F0356A2C502802F3CF3FF0F4CF40F093
:10110E003F50352640503622000E3722000E382230
:10111E002E502902F3CF3FF0F4CF40F03F503B2644
:10112E0040503C22000E3D22000E3E222D502A023F
:10113E00F3CF3FF0F4CF40F03F503B2640503C22DF
:10114E00000E3D22000E3E222E502A02F3CF3FF01B
:10115E00F4CF40F03F50306E4050316E326A336AF9
:10116E0032C033F031C032F030C031F0306A30501E
:10117E003B2631503C2232503D2233503E2235C068
:10118E0030F036C031F037C032F038C033F0190EBF
:10119E00D6EF08F0D8903332323231323032E82E78
:1011AE00D1EF08F030503B2631503C2232503D22D8
:1011BE0033503E2237C038F036C037F035C036F0E7
:1011CE00356A39503AC030F0316A3026000E31227D
:1011DE00820E30243F6EFF0E3120406E0CEF09F070
:1011EE00D8903B363C363D363E3638AE01EF09F0F0
:1011FE0003EF09F004EF09F03B80D8903536363610
:10120E00373638363F06D8A040063DAE11EF09F00E
:10121E0013EF09F0F7EF08F0000E396E38AE1AEF43
:10122E0009F01CEF09F040EF09F0FF0E3514306E97
:10123E00FF0E3614316EFF0E3714326E7F0E3814D9
:10124E00336E3050311032103310D8B431EF09F004
:10125E0033EF09F037EF09F0010E396E40EF09F068
:10126E003BA03CEF09F03EEF09F040EF09F033EF01
:10127E0009F03950D8B446EF09F048EF09F06CEF99
:10128E0009F0010E3B26000E3C223D223E223EA0DE
:10129E0053EF09F055EF09F06CEF09F03BC030F059
:1012AE003CC031F03DC032F03EC033F03334333207
:1012BE0032323132303230C03BF031C03CF032C0CD
:1012CE003DF033C03EF03F4A402A40BE77EF09F072
:1012DE00405008E13F28D8A077EF09F079EF09F0E8
:1012EE0083EF09F0000E3B6E000E3C6E800E3D6EDD
:1012FE007F0E3E6EB1EF09F040BE90EF09F0405008
:10130E0006E13F04D8B08EEF09F090EF09F09CEFA4
:10131E0009F0000E3B6E000E3C6E000E3D6E000E90
:10132E003E6E000E346EB1EF09F03FC03AF0FF0E84
:10133E003B16FF0E3C167F0E3D16000E3E163AA0D3
:10134E00ABEF09F0ADEF09F0AEEF09F03D8ED8909E
:10135E003A303E6E34503E123BC028F03CC029F06D
:10136E003DC02AF03EC02BF012001250800B1F6EB3
:10137E0012501224266E11AEC7EF09F0C9EF09F014
:10138E00CAEF09F026802650D8B4D0EF09F0D2EF7C
:10139E0009F0E7EF09F02628D8A4D8EF09F0DAEF24
:1013AE0009F0E2EF09F0000E0F6E000E106E000E47
:1013BE00116E000E126E118E000E126EEFEF09F00E
:1013CE00000E0F6E000E106E000E116E000E126EDD
:1013DE001650800B1F1A16501624276E15AEFAEFF4
:1013EE0009F0FCEF09F0FDEF09F027802750D8B483
:1013FE0003EF0AF005EF0AF01AEF0AF02728D8A437
:10140E000BEF0AF00DEF0AF015EF0AF0000E136E57
:10141E00000E146E000E156E000E166E158E000E5A
:10142E00166E22EF0AF0000E136E000E146E000EF2
:10143E00156E000E166E1350141015101610D8A43B
:10144E002BEF0AF02DEF0AF045EF0AF0000E0F6EAB
:10145E00000E106E000E116E000E126E800E111226
:10146E007F0E12121F5012120FC00FF010C010F08C
:10147E0011C011F012C012F088EF0BF02650D8A454
:10148E004BEF0AF04DEF0AF057EF0AF0000E0F6E19
:10149E00000E106E000E116E000E126E88EF0BF025
:1014AE00275026C017F0186A175E000E185A7F0EC6
:1014BE001724206E000E1820216E0FC01BF010C0D6
:1014CE001CF011C01DF012C01EF0000E0F6E000EAB
:1014DE00106E000E116E000E126E000E226E000EB9
:1014EE00236E000E246E000E256E000E276EB8EFD2
:1014FE000AF02750D8B486EF0AF088EF0AF09FEF73
:10150E000AF0D8901B361C361D361E36D8900F3674
:10151E0010361136123625AE97EF0AF099EF0AF013
:10152E009AEF0AF00F80D8902236233624362536CD
:10153E0013501B5C14501C5815501D5816501E5835
:10154E00D8A0ACEF0AF0AEEF0AF0B7EF0AF0258C98
:10155E0013501B5E14501C5A15501D5A16501E5A0D
:10156E00272A190E2764BEEF0AF0C0EF0AF080EFAB
:10157E000AF01B501C101D101E10D8B4C9EF0AF033
:10158E00CBEF0AF0E3EF0AF02280E3EF0AF0D890F7
:10159E000F3610361136123625AED8EF0AF0DAEFC6
:1015AE000AF0DBEF0AF00F80D8902236233624366D
:1015BE0025362006D8A0210611AEE8EF0AF0EAEF94
:1015CE000AF0CEEF0AF0000E276E25AEF1EF0AF00C
:1015DE00F3EF0AF017EF0BF0FF0E2214176EFF0E4B
:1015EE002314186EFF0E2414196E7F0E25141A6E16
:1015FE001750181019101A10D8B408EF0BF00AEF84
:10160E000BF00EEF0BF0010E276E17EF0BF00FA085
:10161E0013EF0BF015EF0BF017EF0BF00AEF0BF0CB
:10162E002750D8B41DEF0BF01FEF0BF043EF0BF06C
:10163E00010E0F26000E10221122122212A02AEFE6
:10164E000BF02CEF0BF043EF0BF00FC017F010C0A8
:10165E0018F011C019F012C01AF01A341A321932D9
:10166E001832173217C00FF018C010F019C011F051
:10167E001AC012F0204A212A21BE4EEF0BF0215043
:10168E0008E12028D8A04EEF0BF050EF0BF05BEFE7
:10169E000BF0000E216E2068000E0F6E000E106E05
:1016AE00000E116E000E126E21BE68EF0BF021506F
:1016BE0006E12004D8B066EF0BF068EF0BF076EF82
:1016CE000BF0000E216E000E206E000E0F6E000E3F
:1016DE00106E000E116E000E126E000E1F6E20C0E8
:1016EE0026F026A07DEF0BF07FEF0BF082EF0BF0D4
:1016FE00118E83EF0BF0119ED8902630126E39EFBB
:10170E000AF01200000E0001996F000E986F000E85
:10171E00976F000E966F77EC14F0849269EC12F0CE
:10172E00000E87EC14F0010E026E0F0E036E37ECF6
:10173E0012F0000E80EC14F0120E026E0F0E036EFD
:10174E0037EC12F0020E5C6E450E5B6EAA0EE82EA2
:10175E00FED75B2EFCD75C2EFAD77BEC11F04BC07C
:10176E009CF04CC09DF002EC12F04BC09AF04CC0B5
:10177E009BF09A0E556E000E566E980E576E000E1A
:10178E00586E960E596E000E5A6E5FEC13F0020EE6
:10179E005C6E450E5B6EAA0EE82EFED75B2EFCD756
:1017AE005C2EFAD700019D5107E11E0E9C5DD8B04C
:1017BE00E3EF0BF0E5EF0BF0EDEF0BF0000E976F94
:1017CE00010E966F26EC14F0B4EF0BF09B5107E16F
:1017DE00140E9A5DD8B0F6EF0BF0F8EF0BF00DEF9C
:1017EE000CF09D5107E11E0E9C5DD8B001EF0CF080
:1017FE0003EF0CF005EF0CF0E5EF0BF0000E976F1A
:10180E00000E966F36EC14F0B4EF0BF09B5109E11D
:10181E00150E9A5DD8A016EF0CF018EF0CF030EF05
:10182E000CF09B5107E1210E9A5DD8B021EF0CF020
:10183E0023EF0CF030EF0CF09D5107E13D0E9C5D57
:10184E00D8B02CEF0CF02EEF0CF005EF0CF0E5EF0E
:10185E000BF09B5109E1210E9A5DD8A039EF0CF0E7
:10186E003BEF0CF053EF0CF09B5107E12E0E9A5DFF
:10187E00D8B044EF0CF046EF0CF053EF0CF09D5146
:10188E0007E1510E9C5DD8B04FEF0CF051EF0CF00C
:10189E0005EF0CF0E5EF0BF09B5109E12E0E9A5D72
:1018AE00D8A05CEF0CF05EEF0CF06BEF0CF09D51DE
:1018BE0007E1610E9C5DD8B067EF0CF069EF0CF09C
:1018CE0005EF0CF0E5EF0BF0B4EF0BF000EF00F0CE
:1018DE00096E0950D8B476EF0CF078EF0CF09AEF51
:1018EE000CF004BE7FEF0CF07DEF0CF09AEF0CF0D5
:1018FE0001C005F002C006F003C007F004C008F0F6
:10190E00051E061E071E081E052A000E06220722A9
:10191E00082205C00BF006C00CF007C00DF008C081
:10192E000EF0A2EF0CF001C00BF002C00CF003C0E1
:10193E000DF004C00EF00150021003100410D8A4D4
:10194E00ABEF0CF0ADEF0CF0B7EF0CF0000E016E3C
:10195E00000E026E000E036E000E046E48EF0DF0C8
:10196E00960E0A6EC1EF0CF00A2AD8900E320D3286
:10197E000C320B32000E0B14056E000E0C14066E9C
:10198E00000E0D14076EFE0E0E14086E0550061096
:10199E0007100810D8A4D6EF0CF0D8EF0CF0BBEF60
:1019AE000CF0E6EF0CF00A2A010E0B26000E0C22AC
:1019BE000D220E22D8900E320D320C320B32000E4A
:1019CE000B14056E000E0C14066E000E0D14076E31
:1019DE00FF0E0E14086E0550061007100810D8A43E
:1019EE00FBEF0CF0FDEF0CF0DAEF0CF005EF0DF065
:1019FE000A06D8900B360C360D360E360DBE0AEF93
:101A0E000DF00CEF0DF014EF0DF0020E0A6012EF58
:101A1E000DF014EF0DF0FFEF0CF00AB019EF0DF012
:101A2E001BEF0DF01CEF0DF00D9ED8900A320AC080
:101A3E0005F0066A076A086A05C008F0076A066AB2
:101A4E00056A05500B1206500C1207500D12085065
:101A5E000E120950D8B436EF0DF038EF0DF040EFFE
:101A6E000DF004BE3FEF0DF03DEF0DF040EF0DF029
:101A7E000E8E0BC001F00CC002F00DC003F00EC0B4
:101A8E0004F012001FBE4EEF0DF051EF0DF0010EDF
:101A9E0052EF0DF0000E286E2850D8B459EF0DF00D
:101AAE005BEF0DF05FEF0DF01E6C1F1ED8B01F2AFE
:101ABE00000161BF67EF0DF065EF0DF06DEF0DF0FA
:101ACE00000E236E010E226E71EF0DF060C022F03B
:101ADE0061C023F05DC024F05EC025F02850D8B45C
:101AEE007BEF0DF07DEF0DF094EF0DF02406D8A0F6
:101AFE0025062850D8A486EF0DF088EF0DF08EEF56
:101B0E000DF0000E216E2B0E206E92EF0DF0000EDA
:101B1E00216E2D0E206E20C028F0000E276E1F0E97
:101B2E00266E000E816FCCEF0DF02606D8A027068C
:101B3E00620E2624D96E000E2720DA6E1EC001F02A
:101B4E001FC002F0000E046E0A0E036ECEEC10F0F3
:101B5E0001C007F002C008F0A4EC13F00750300FDC
:101B6E00DF6E2206D8A023062406D8A025061EC0A6
:101B7E0001F01FC002F0000E046E0A0E036E0AEC96
:101B8E0010F001C01EF002C01FF027BED7EF0DF0FF
:101B9E00275008E12604D8A0D7EF0DF0D9EF0DF0AD
:101BAE00EFEF0DF01E501F10D8A4E0EF0DF0E2EF96
:101BBE000DF09CEF0DF023BEEFEF0DF0235006E17C
:101BCE002204D8B0EDEF0DF0EFEF0DF09CEF0DF01D
:101BDE002850D8B4F5EF0DF0F7EF0DF002EF0EF040
:101BEE002606D8A02706620E2624D96E000E2720C0
:101BFE00DA6E28C0DFFF1CC011F01DC012F0620E9D
:101C0E002624136E000E2720146E24C015F025C056
:101C1E0016F026EC11F012002BC0D9FF2CC0DAFF03
:101C2E00DECFF6FFDDCFF7FF0800F550250AD8A46A
:101C3E0023EF0EF025EF0EF0AAEF0EF02BC0D9FF1A
:101C4E002CC0DAFFDE2A000EDD22000E5E6E000EC4
:101C5E005D6E5DC05FF00001606961692BC007F0C9
:101C6E002CC008F02DC009F02EC00AF0A7EC0FF022
:101C7E0007C05DF008C05EF05EBE4AEF0EF048EFA2
:101C8E000EF04FEF0EF05F805D6C5E1ED8B05E2AD8
:101C9E002BC0D9FF2CC0DAFFDECF35F0DDCF36F00A
:101CAE0035C0F6FF36C0F7FF0800F550640AD8B409
:101CBE0063EF0EF065EF0EF073EF0EF035C0F6FF2A
:101CCE0036C0F7FF0800F550690AD8A471EF0EF080
:101CDE0073EF0EF0A1EF0EF02DC0D9FF2EC0DAFF7C
:101CEE00DFCF2FF0020EDE26DFCF30F0000EDD222A
:101CFE002FC0D9FF30C0DAFFDECF31F0DDCF32F0AA
:101D0E00010E35242F6E000E3620306E2BC0D9FFFB
:101D1E002CC0DAFF2FC0DEFF30C0DDFF29C01CF063
:101D2E002AC01DF031C01EF032C01FF049EC0DF07C
:101D3E00BEEF0EF02BC0D9FF2CC0DAFFDE2A000E4C
:101D4E00DD22BEEF0EF02BC0D9FF2CC0DAFFDECFA6
:101D5E00F6FFDDCFF7FF0800F550016E026A29C0CD
:101D6E0003F02AC004F042EC0FF0A1EF0EF01200C7
:101D7E00433444344A6E4A50D8A4C8EF0EF0CAEF2A
:101D8E000EF0D4EF0EF0000E416E000E426E000EFD
:101D9E00436E000E446E41EF0FF041C045F042C05D
:101DAE0046F043C047F044C048F0200EE4EF0EF07A
:101DBE00D8904832473246324532E82EDFEF0EF0E9
:101DCE004550496E438EFF0E4116FF0E4216FF0E12
:101DDE004316000E4416960E4A5E4ABEFBEF0EF0F8
:101DEE00F9EF0EF011EF0FF04A50800A970FD8B0AE
:101DFE0003EF0FF005EF0FF007EF0FF0CAEF0EF045
:101E0E00D89044324332423241324A3E07EF0FF00D
:101E1E0029EF0FF01F0E4A6417EF0FF019EF0FF0B6
:101E2E0021EF0FF0CAEF0EF0D8904136423643360E
:101E3E0044364A064A50D8A427EF0FF029EF0FF088
:101E4E001BEF0FF04950D8B42FEF0FF031EF0FF01A
:101E5E0039EF0FF0441E431E421E416C000E42220B
:101E6E004322442241C041F042C042F043C043F0FD
:101E7E0044C044F0120003500410D8B449EF0FF0E0
:101E8E004BEF0FF054EF0FF003500410D8A452EFA5
:101E9E000FF054EF0FF059EF0FF0015094EC14F0D7
:101EAE00A6EF0FF020EE0AF00350D9260450DA22E6
:101EBE00DE50DE10D8B466EF0FF068EF0FF083EF50
:101ECE000FF020EE0AF00350D9260450DA2210EE5D
:101EDE0003F00350E1260450E222DE50E65CE650A9
:101EEE00800A096EDE50800A0958D8B081EF0FF0D3
:101EFE0083EF0FF0A6EF0FF020EE03F00350D9267C
:101F0E000450DA22DECF05F0DDCF06F003C0D9FF94
:101F1E0004C0DAFFDECF07F0DDCF08F0055007244E
:101F2E00D96E06500820DA6E01C0DFFF20EE03F0F6
:101F3E000350D9260450DA22DE2A000EDD221200CA
:101F4E00000E0F6E000E0E6E07C0D9FF08C0DAFF2E
:101F5E00DECFF6FFDDCFF7FF0800F5502A0AD8A432
:101F6E00BBEF0FF0BDEF0FF0F1EF0FF007C0D9FF91
:101F7E0008C0DAFFDE2A000EDD2209C0D9FF0AC032
:101F8E00DAFFDFCF0BF0020EDE26DFCF0CF0000EF5
:101F9E00DD220BC0D9FF0CC0DAFFDECF0EF0DDCF95
:101FAE000FF005EF10F00EC001F00FC002F0000EA2
:101FBE00046E0A0E036E13EC14F00D5001240E6E17
:101FCE00000E02200F6E07C0D9FF08C0DAFFDE2A0E
:101FDE00000EDD2207C0D9FF08C0DAFFDECFF6FF04
:101FEE00DDCFF7FF0800F550D00F0D6E090E0D6412
:101FFE0003EF10F005EF10F0DAEF0FF00EC007F060
:10200E000FC008F01200000E066E04BE13EF10F0A3
:10201E0011EF10F019EF10F0036C041ED8B0042A63
:10202E00010E066E02BE20EF10F01EEF10F026EF2E
:10203E0010F0016C021ED8B0022A010E061A000E14
:10204E00086E000E076E03500410D8B431EF10F076
:10205E0033EF10F05BEF10F0010E056E3BEF10F05A
:10206E00D89003360436052A04AE40EF10F042EF46
:10207E0010F037EF10F0D890073608360350015C99
:10208E0004500258D8A04EEF10F050EF10F055EF5C
:10209E0010F00350015E0450025A0780D8900432AB
:1020AE000332052E42EF10F00650D8B461EF10F057
:1020BE0063EF10F067EF10F0076C081ED8B0082A17
:1020CE0007C001F008C002F01200016E030EE82EE8
:1020DE00FED700F001A876EF10F078EF10F07BEF4E
:1020EE0010F086887CEF10F0869801AA81EF10F030
:1020FE0083EF10F086EF10F0868A87EF10F0869A45
:10210E0001AC8CEF10F08EEF10F091EF10F0868C8A
:10211E0092EF10F0869C01AE97EF10F099EF10F051
:10212E009CEF10F0868E9DEF10F0869E8782879230
:10213E0001A0A4EF10F0A6EF10F0A9EF10F0868822
:10214E00AAEF10F0869801A2AFEF10F0B1EF10F0E9
:10215E00B4EF10F0868AB5EF10F0869A01A4BAEFAC
:10216E0010F0BCEF10F0BFEF10F0868CC0EF10F047
:10217E00869C01A6C5EF10F0C7EF10F0CAEF10F065
:10218E00868ECBEF10F0869E878287921200000E0D
:10219E00066E02BED7EF10F0D5EF10F0DDEF10F0A7
:1021AE00016C021ED8B0022A010E066E04BEE4EFC8
:1021BE0010F0E2EF10F0E8EF10F0036C041ED8B050
:1021CE00042A03500410D8B4EFEF10F0F1EF10F022
:1021DE0015EF11F0010E056EF9EF10F0D8900336E1
:1021EE000436052A04AEFEEF10F000EF11F0F5EF05
:1021FE0010F00350015C04500258D8A009EF11F002
:10220E000BEF11F00FEF11F00350015E0450025A64
:10221E00D89004320332052E00EF11F00650D8B4D8
:10222E001BEF11F01DEF11F021EF11F0016C021EEA
:10223E00D8B0022A01C001F002C002F012005FA065
:10224E002BEF11F02DEF11F037EF11F013C00AF054
:10225E0014C00BF011C00CF012C00DF082EC13F094
:10226E0016BE3CEF11F03EEF11F044EF11F015C029
:10227E001AF016C01BF048EF11F0000E1B6E000E88
:10228E001A6E000E196E000E186E5AEF11F0000E37
:10229E00026E200E016E11C003F012C004F042EC6B
:1022AE000FF0184A192A1A50185C1950800A176E26
:1022BE001B50800A1758D8A067EF11F069EF11F084
:1022CE004EEF11F05FB06EEF11F070EF11F07AEF8C
:1022DE0011F013C00AF014C00BF011C00CF012C0B4
:1022EE000DF082EC13F01200000EFCEC13F001C0A6
:1022FE004FF002C050F0000E2C6E000E2D6EC80E68
:10230E002E6E420E2F6E000E136E000E146E520EB7
:10231E00156E440E166E4FC001F050C002F0036AE7
:10232E00046A000E6FEC0CF001C00FF002C010F04A
:10233E0003C011F004C012F0BCEC09F00FC028F07D
:10234E0010C029F011C02AF012C02BF0A7EC07F034
:10235E0028C041F029C042F02AC043F02BC044F0FF
:10236E00BFEC0EF041C04DF042C04EF04DC04BF0F0
:10237E004EC04CF01200000E876E000E866E000EE0
:10238E00836E000E846E000E856E000E8C6E030E34
:10239E00886E000E896E000E8A6E000E8B6E000E19
:1023AE000F01266F000E216F000E196F040E2E6F97
:1023BE00030E116F000E256F000E2D6F000E186F9D
:1023CE00000E106F000E206F000E2C6F000E0F6FA0
:1023DE00000E176F000E1F6F000E246F0E69166928
:1023EE001E692369070E2B6F0D6915691D69226918
:1023FE000F0E2A6F1200010EFCEC13F001C04FF00D
:10240E0002C050F0000E136E000E146E000E156E0C
:10241E00400E166E4FC001F050C002F0036A046AFF
:10242E00000E6FEC0CF001C00FF002C010F003C0F4
:10243E0011F004C012F0BCEC09F00FC041F010C056
:10244E0042F011C043F012C044F0BFEC0EF041C098
:10245E004DF042C04EF04DC04BF04EC04CF012004D
:10246E0087844FEF12F002C0F6FF03C0F7FF000E95
:10247E00F86E0E0EF76403D00800F55005D0F6CFB7
:10248E00E1FFF7CFE2FFE7506CEC10F0024A032AAF
:10249E0002C0F6FF03C0F7FF000EF86E0E0EF764D3
:1024AE0003D00800F55005D0F6CFE1FFF7CFE2FFDD
:1024BE00E7500009D8A466EF12F068EF12F03AEF79
:1024CE0012F0120087948792050E026EDE0EE82E31
:1024DE00FED7022EFCD78688868A869C869E8782A9
:1024EE008792FA0E00D0E82EFDD787828792100EC3
:1024FE00E82EFED700D087828792100EE82EFED7E8
:10250E0000D08698868A869C869E87828792280E21
:10251E006CEC10F00E0E6CEC10F06EEC14F0060E6F
:10252E006CEC10F012006EEC14F0820E3F6E000E8A
:10253E00406E480E416E0F0E426E53C043F054C0B3
:10254E0044F039EC13F0000E87EC14F0230E026EFB
:10255E000F0E036E37EC12F0060E87EC14F0820E9F
:10256E00026E000E036E37EC12F0250E8EEC14F098
:10257E00200E8EEC14F01200000E6A6E000E6B6EC2
:10258E00000E6C6E000E6D6E000E686E000E696EA3
:10259E00000E666E000E0F015F6F000E5D6F000E77
:1025AE005E6F000E596F000E5A6F000E5B6F000EBD
:1025BE00656E000E586F000E566F000E576F840E2C
:1025CE00606E000E5C6F1200820E3F6E000E406E4B
:1025DE00480E416E0F0E426E53C043F054C044F08D
:1025EE0039EC13F0000E80EC14F02B0E026E0F0E71
:1025FE00036E37EC12F0050E80EC14F0820E026EB4
:10260E00000E036E37EC12F0430E8EEC14F0200E1B
:10261E008EEC14F0120039C03DF03AC03EF026EFB9
:10262E0013F037C029F038C02AF03D0E2B6E000E85
:10263E002C6E3BC02DF03CC02EF013EC0EF03DC0C6
:10264E00F6FF3EC0F7FF0800F5500009D8A432EFA0
:10265E0013F034EF13F018EF13F0000E386E000E77
:10266E00376E1200430E456E000E466E3FC047F0A9
:10267E0040C048F0000E4B6E000E4A6E000E526EB9
:10268E00000E516E470E376E000E386E41C039F097
:10269E0042C03AF0450E3B6E000E3C6E12EC13F04B
:1026AE004A503F24D96E4B504020DA6EDF6A12003A
:1026BE0020EE02F05550D9265650DA22DECF53F0D6
:1026CE00DDCF54F09AEC12F059C004F05AC005F068
:1026DE00E0EC13F055C0D9FF56C0DAFFDECF53F051
:1026EE00DDCF54F0EBEC12F057C004F058C005F0FB
:1026FE00C4EC13F01200000E106E000E0F6E93EF6E
:10270E0013F00EC001F0026A0CC003F00DC004F00D
:10271E0042EC0FF00F4A102A0F500A24D96E1050B7
:10272E000B20DA6EDF500E6E0E50D8A4A1EF13F010
:10273E00A3EF13F088EF13F0120008BEB1EF13F001
:10274E00085006E10704D8B0AFEF13F0B1EF13F065
:10275E00BFEF13F007C009F008C00AF0091E0A1EE9
:10276E00094A0A2A09C007F00AC008F0C3EF13F09D
:10277E0007C007F008C008F0120004C0D9FF05C05A
:10278E00DAFFDE04DE10D8A4CFEF13F0D1EF13F092
:10279E00D9EF13F0380E026E0F0E036E37EC12F0F7
:1027AE00DFEF13F0320E026E0F0E036E37EC12F0E7
:1027BE00120004C0D9FF05C0DAFFDE50DE10D8A427
:1027CE00EBEF13F0EDEF13F0F5EF13F0430E026E97
:1027DE000F0E036E37EC12F0FBEF13F03E0E026E8F
:1027EE000F0E036E37EC12F01200056E05C05FFF80
:1027FE00608E609C608060B007EF14F009EF14F0FB
:10280E0002EF14F06450046E036A63500324016EE9
:10281E00000E0420026E120001500302F3CF05F0E9
:10282E00F4CF06F001500402F350062602500302C4
:10283E00F350062605C001F006C002F0120000019A
:10284E0098519911D8A42EEF14F030EF14F035EF03
:10285E0014F0000E996F010E986F84821200000121
:10286E0098059911D8A43EEF14F040EF14F045EFFF
:10287E0014F0000E996F000E986F8492120000EE05
:10288E0060F03A0EEE6AE806FDE15F6A5E6A5D6A26
:10289E00000EF86E000189EF0BF0000E0E01E16FD5
:1028AE00000EE26F000EE36F000EE46F000EE56F98
:1028BE00000EE66F1200600E0E01D86F000EDA6F7A
:1028CE00000EDC6F000EDE6F000EDD6F12008794BF
:1028DE00010E6CEC10F0A60EE82EFED700D0120002
:1028EE0054EC14F0C2EC11F062EC14F0C3EC12F0E4
:1028FE001200026E87940250C00F6CEC10F01200A2
:10290E00026E87940250800F6CEC10F01200026E73
:0C291E00878402506CEC10F012001200D4
:020000040020DA
:10000000FF0FFF0FFF0FFF0FFF0FFF0FFF0FFF0F80
:020000040030CA
:0C000000ECFFFFFF9FFFFFFFFFFFFFFF73
:00000001FF
