:040000005DEF17F0A9
:100F00000020202020456D626564444E4120202051
:100F100020002049727269676174696F6E2053798D
:100F20007320004D6F6973743A200054656D703AF8
:100F30002000503A4F666600503A204F6E004163E1
:0D0F40007420004F4B212100253364000078
:100F4E002B50800B346E2B502B243A6E2AAEB2EF00
:100F5E0007F0B4EF07F0B5EF07F03A803A50D8B487
:100F6E00BBEF07F0BDEF07F0D0EF07F03A28D8A49B
:100F7E00C3EF07F0C5EF07F0CDEF07F0000E286EB8
:100F8E00000E296E000E2A6E000E2B6E2A8ED8EFE2
:100F9E0007F0000E286E000E296E000E2A6E000E4F
:100FAE002B6E2F50800B341A2F502F24396E2EAEED
:100FBE00E3EF07F0E5EF07F0E6EF07F03980395081
:100FCE00D8B4ECEF07F0EEEF07F001EF08F0392898
:100FDE00D8A4F4EF07F0F6EF07F0FEEF07F0000EDF
:100FEE002C6E000E2D6E000E2E6E000E2F6E2E8E9F
:100FFE0009EF08F0000E2C6E000E2D6E000E2E6EF8
:10100E00000E2F6E3950D8B40FEF08F011EF08F024
:10101E0019EF08F03A50D8A417EF08F019EF08F0BE
:10102E0023EF08F0000E286E000E296E000E2A6EB9
:10103E00000E2B6EBBEF09F02E502802F3CF3FF0BF
:10104E00F4CF40F03F50356E366A376A386A4050FA
:10105E003B6E3C6A3D6A3E6A2D502902F3CF3FF04B
:10106E00F4CF40F03F503526000E3622372238227C
:10107E0040503B26000E3C223D223E222C502A029E
:10108E00F3CF3FF0F4CF40F03F503526000E36221E
:10109E003722382240503B26000E3C223D223E2273
:1010AE0037C038F036C037F035C036F0356A2C50C0
:1010BE002902F3CF3FF0F4CF40F03F503526405099
:1010CE003622000E3722000E38222D502802F3CF82
:1010DE003FF0F4CF40F03F50352640503622000E00
:1010EE003722000E382237C038F036C037F035C000
:1010FE0036F0356A2C502802F3CF3FF0F4CF40F093
:10110E003F50352640503622000E3722000E382230
:10111E002E502902F3CF3FF0F4CF40F03F503B2644
:10112E0040503C22000E3D22000E3E222D502A023F
:10113E00F3CF3FF0F4CF40F03F503B2640503C22DF
:10114E00000E3D22000E3E222E502A02F3CF3FF01B
:10115E00F4CF40F03F50306E4050316E326A336AF9
:10116E0032C033F031C032F030C031F0306A30501E
:10117E003B2631503C2232503D2233503E2235C068
:10118E0030F036C031F037C032F038C033F0190EBF
:10119E00D6EF08F0D8903332323231323032E82E78
:1011AE00D1EF08F030503B2631503C2232503D22D8
:1011BE0033503E2237C038F036C037F035C036F0E7
:1011CE00356A39503AC030F0316A3026000E31227D
:1011DE00820E30243F6EFF0E3120406E0CEF09F070
:1011EE00D8903B363C363D363E3638AE01EF09F0F0
:1011FE0003EF09F004EF09F03B80D8903536363610
:10120E00373638363F06D8A040063DAE11EF09F00E
:10121E0013EF09F0F7EF08F0000E396E38AE1AEF43
:10122E0009F01CEF09F040EF09F0FF0E3514306E97
:10123E00FF0E3614316EFF0E3714326E7F0E3814D9
:10124E00336E3050311032103310D8B431EF09F004
:10125E0033EF09F037EF09F0010E396E40EF09F068
:10126E003BA03CEF09F03EEF09F040EF09F033EF01
:10127E0009F03950D8B446EF09F048EF09F06CEF99
:10128E0009F0010E3B26000E3C223D223E223EA0DE
:10129E0053EF09F055EF09F06CEF09F03BC030F059
:1012AE003CC031F03DC032F03EC033F03334333207
:1012BE0032323132303230C03BF031C03CF032C0CD
:1012CE003DF033C03EF03F4A402A40BE77EF09F072
:1012DE00405008E13F28D8A077EF09F079EF09F0E8
:1012EE0083EF09F0000E3B6E000E3C6E800E3D6EDD
:1012FE007F0E3E6EB1EF09F040BE90EF09F0405008
:10130E0006E13F04D8B08EEF09F090EF09F09CEFA4
:10131E0009F0000E3B6E000E3C6E000E3D6E000E90
:10132E003E6E000E346EB1EF09F03FC03AF0FF0E84
:10133E003B16FF0E3C167F0E3D16000E3E163AA0D3
:10134E00ABEF09F0ADEF09F0AEEF09F03D8ED8909E
:10135E003A303E6E34503E123BC028F03CC029F06D
:10136E003DC02AF03EC02BF012001250800B1F6EB3
:10137E0012501224266E11AEC7EF09F0C9EF09F014
:10138E00CAEF09F026802650D8B4D0EF09F0D2EF7C
:10139E0009F0E7EF09F02628D8A4D8EF09F0DAEF24
:1013AE0009F0E2EF09F0000E0F6E000E106E000E47
:1013BE00116E000E126E118E000E126EEFEF09F00E
:1013CE00000E0F6E000E106E000E116E000E126EDD
:1013DE001650800B1F1A16501624276E15AEFAEFF4
:1013EE0009F0FCEF09F0FDEF09F027802750D8B483
:1013FE0003EF0AF005EF0AF01AEF0AF02728D8A437
:10140E000BEF0AF00DEF0AF015EF0AF0000E136E57
:10141E00000E146E000E156E000E166E158E000E5A
:10142E00166E22EF0AF0000E136E000E146E000EF2
:10143E00156E000E166E1350141015101610D8A43B
:10144E002BEF0AF02DEF0AF045EF0AF0000E0F6EAB
:10145E00000E106E000E116E000E126E800E111226
:10146E007F0E12121F5012120FC00FF010C010F08C
:10147E0011C011F012C012F088EF0BF02650D8A454
:10148E004BEF0AF04DEF0AF057EF0AF0000E0F6E19
:10149E00000E106E000E116E000E126E88EF0BF025
:1014AE00275026C017F0186A175E000E185A7F0EC6
:1014BE001724206E000E1820216E0FC01BF010C0D6
:1014CE001CF011C01DF012C01EF0000E0F6E000EAB
:1014DE00106E000E116E000E126E000E226E000EB9
:1014EE00236E000E246E000E256E000E276EB8EFD2
:1014FE000AF02750D8B486EF0AF088EF0AF09FEF73
:10150E000AF0D8901B361C361D361E36D8900F3674
:10151E0010361136123625AE97EF0AF099EF0AF013
:10152E009AEF0AF00F80D8902236233624362536CD
:10153E0013501B5C14501C5815501D5816501E5835
:10154E00D8A0ACEF0AF0AEEF0AF0B7EF0AF0258C98
:10155E0013501B5E14501C5A15501D5A16501E5A0D
:10156E00272A190E2764BEEF0AF0C0EF0AF080EFAB
:10157E000AF01B501C101D101E10D8B4C9EF0AF033
:10158E00CBEF0AF0E3EF0AF02280E3EF0AF0D890F7
:10159E000F3610361136123625AED8EF0AF0DAEFC6
:1015AE000AF0DBEF0AF00F80D8902236233624366D
:1015BE0025362006D8A0210611AEE8EF0AF0EAEF94
:1015CE000AF0CEEF0AF0000E276E25AEF1EF0AF00C
:1015DE00F3EF0AF017EF0BF0FF0E2214176EFF0E4B
:1015EE002314186EFF0E2414196E7F0E25141A6E16
:1015FE001750181019101A10D8B408EF0BF00AEF84
:10160E000BF00EEF0BF0010E276E17EF0BF00FA085
:10161E0013EF0BF015EF0BF017EF0BF00AEF0BF0CB
:10162E002750D8B41DEF0BF01FEF0BF043EF0BF06C
:10163E00010E0F26000E10221122122212A02AEFE6
:10164E000BF02CEF0BF043EF0BF00FC017F010C0A8
:10165E0018F011C019F012C01AF01A341A321932D9
:10166E001832173217C00FF018C010F019C011F051
:10167E001AC012F0204A212A21BE4EEF0BF0215043
:10168E0008E12028D8A04EEF0BF050EF0BF05BEFE7
:10169E000BF0000E216E2068000E0F6E000E106E05
:1016AE00000E116E000E126E21BE68EF0BF021506F
:1016BE0006E12004D8B066EF0BF068EF0BF076EF82
:1016CE000BF0000E216E000E206E000E0F6E000E3F
:1016DE00106E000E116E000E126E000E1F6E20C0E8
:1016EE0026F026A07DEF0BF07FEF0BF082EF0BF0D4
:1016FE00118E83EF0BF0119ED8902630126E39EFBB
:10170E000AF012001EC036F01FC037F020C038F0AD
:10171E0021C039F022C03AF023C03BF024C03CF087
:10172E0025C03DF03DBE9EEF0BF0A1EF0BF0010E7C
:10173E00A2EF0BF0000E346E356A34503510D8B46B
:10174E00ABEF0BF0ADEF0BF0BDEF0BF03D1E3C1E03
:10175E003B1E3A1E391E381E371E366C000E3722BF
:10176E00382239223A223B223C223D22000165BF1B
:10177E00C3EF0BF0C5EF0BF0C6EF0BF05E9265BF3B
:10178E00D3EF0BF0655106E16405D8B0D1EF0BF045
:10179E00D3EF0BF0D9EF0BF0000E316E010E306E61
:1017AE00DDEF0BF064C030F065C031F062C032F096
:1017BE0063C033F034503510D8A4E8EF0BF0EAEFE5
:1017CE000BF0F1EF0BF05EA4EFEF0BF0F1EF0BF07F
:1017DE00F4EF0BF03206D8A03306000E3F6E1F0E4C
:1017EE003E6E000E896F78EF0CF03E06D8A03F06D5
:1017FE006A0E3E24D96E000E3F20DA6E36C001F01E
:10180E0037C002F038C003F039C004F03AC005F01A
:10181E003BC006F03CC007F03DC008F00A0E096E52
:10182E00000E0A6E000E0B6E000E0C6E000E0D6E8C
:10183E00000E0E6E000E0F6E000E106EBCEC11F050
:10184E0001C026F002C027F003C028F004C029F022
:10185E0005C02AF006C02BF007C02CF008C02DF0F2
:10186E0026C013F028C014F059EC16F01350300FA8
:10187E00DF6E3006D8A031063206D8A0330636C049
:10188E0001F037C002F038C003F039C004F03AC09E
:10189E0005F03BC006F03CC007F03DC008F00A0E54
:1018AE00096E000E0A6E000E0B6E000E0C6E000E10
:1018BE000D6E000E0E6E000E0F6E000E106EF8EC1A
:1018CE0010F001C036F002C037F003C038F004C08B
:1018DE0039F005C03AF006C03BF007C03CF008C036
:1018EE003DF03FBE83EF0CF03F5008E13E04D8A020
:1018FE0083EF0CF085EF0CF0B5EF0CF0365037108F
:10190E00381039103A103B103C103D10D8A492EF0D
:10191E000CF094EF0CF0FCEF0BF031BEA1EF0CF0DD
:10192E00315006E13004D8B09FEF0CF0A1EF0CF06F
:10193E00FCEF0BF033BEACEF0CF0335008E1320489
:10194E00D8A0ACEF0CF0AEEF0CF0B5EF0CF05EB231
:10195E00B3EF0CF0B5EF0CF0FCEF0BF0345035108C
:10196E00D8A4BCEF0CF0BEEF0CF0C5EF0CF05EA4EB
:10197E00C3EF0CF0C5EF0CF0E3EF0CF03E06D8A071
:10198E003F0634503510D8A4CFEF0CF0D1EF0CF049
:10199E00D7EF0CF0000E2F6E2B0E2E6EDBEF0CF031
:1019AE00000E2F6E2D0E2E6E6A0E3E24D96E000E78
:1019BE003F20DA6E2EC0DFFF1CC011F01DC012F0EA
:1019CE006A0E3E24136E000E3F20146E32C015F0C8
:1019DE0033C016F0B8EC13F011C01CF012C01DF09D
:1019EE00120042C0D9FF43C0DAFFDECFF6FFDDCFD3
:1019FE00F7FF000EF86E0800F550250AD8A40AEF7E
:101A0E000DF00CEF0DF040EF0EF042C0D9FF43C0C9
:101A1E00DAFFDE2A000EDD22000E0001636F000EDB
:101A2E00626F62C05EF063C05FF06469656942C058
:101A3E00D9FF43C0DAFFDECFF6FFDDCFF7FF000E92
:101A4E00F86E0800F5502A0AD8A430EF0DF032EFE8
:101A5E000DF05BEF0DF042C0D9FF43C0DAFFDE2A76
:101A6E00000EDD2244C0D9FF45C0DAFFDFCF46F0BD
:101A7E00020EDE26DFCF47F0000EDD2246C0D9FF74
:101A8E0047C0DAFFDECF62F0DDCF63F063BF54EF05
:101A9E000DF052EF0DF0A0EF0DF05E80626D631F42
:101AAE00D8B0632BA0EF0DF042C0D9FF43C0DAFFD0
:101ABE00DECF08F0DDCF09F026EC10F008C062F0A2
:101ACE0009C063F072EF0DF042C0D9FF43C0DAFFD8
:101ADE00DE2A000EDD22D00E466EFF0E476E42C08D
:101AEE00D9FF43C0DAFFDECFF6FFDDCFF7FF000EE2
:101AFE00F86E0800F550486E496A46504826475021
:101B0E00492249500AE10A0E485CD8A091EF0DF027
:101B1E0094EF0DF0010E95EF0DF0000E526E536A1C
:101B2E0052505310D8A49EEF0DF0A0EF0DF06BEFB6
:101B3E000DF042C0D9FF43C0DAFFDECFF6FFDDCF96
:101B4E00F7FF000EF86E0800F550640AD8B4B2EF35
:101B5E000DF0B4EF0DF0C8EF0DF042C0D9FF43C049
:101B6E00DAFFDECFF6FFDDCFF7FF000EF86E0800CE
:101B7E00F550690AD8A4C6EF0DF0C8EF0DF008EFC6
:101B8E000EF042C0D9FF43C0DAFFDE2A000EDD227E
:101B9E0044C0D9FF45C0DAFFDFCF46F0020EDE2685
:101BAE00DFCF47F0000EDD2246C0D9FF47C0DAFF77
:101BBE00DECF4AF0DDCF4BF0000E4BBEFF0E4C6E6B
:101BCE004D6E4E6E4F6E506E516E40C01CF041C049
:101BDE001DF04AC01EF04BC01FF04CC020F04DC08F
:101BEE0021F04EC022F04FC023F050C024F051C05F
:101BFE0025F089EC0BF01CC040F01DC041F05DEFEC
:101C0E000EF042C0D9FF43C0DAFFDECFF6FFDDCFC4
:101C1E00F7FF000EF86E0800F550250AD8A41AEF4B
:101C2E000EF01CEF0EF033EF0EF042C0D9FF43C0A2
:101C3E00DAFFDE2A000EDD22000E026E250E016E88
:101C4E0040C003F041C004F0F1EC12F0000E416E02
:101C5E00010E406E5DEF0EF042C0D9FF43C0DAFFB9
:101C6E00DE2A000EDD22000E416E000E406E5DEF8C
:101C7E000EF042C0D9FF43C0DAFFDECFF6FFDDCF54
:101C8E00F7FF000EF86E0800F550016E026A40C0B4
:101C9E0003F041C004F0F1EC12F042C0D9FF43C092
:101CAE00DAFFDE2A000EDD222DEF0EF01200000EFE
:101CBE000001696F000E686F000E676F000E666F91
:101CCE00000EB76F000EB66F71EC17F084923AECFF
:101CDE0015F0000E81EC17F0010E026E0F0E036E62
:101CEE0008EC15F0000E7AEC17F0120E026E0F0EC5
:101CFE00036E08EC15F0020E5D6E450E5C6EAA0EBC
:101D0E00E82EFED75C2EFCD75D2EFAD719EC14F018
:101D1E004BC0B6F04CC0B7F0A0EC14F04BC0B8F00E
:101D2E004CC0B9F0B6C0AEF0B7C0AFF0B8C0B0F0AE
:101D3E00B9C0B1F068C0B2F069C0B3F066C0B4F01B
:101D4E0067C0B5F0B0EC16F0020E5D6E450E5C6E1F
:101D5E00AA0EE82EFED75C2EFCD75D2EFAD7000118
:101D6E00B75107E11E0EB65DD8B0C0EF0EF0C2EF50
:101D7E000EF0CAEF0EF0000E676F010E666F23ECC9
:101D8E0017F08DEF0EF0B95107E1140EB85DD8B013
:101D9E00D3EF0EF0D5EF0EF0EAEF0EF0B75107E1EC
:101DAE001E0EB65DD8B0DEEF0EF0E0EF0EF0E2EFF5
:101DBE000EF0C2EF0EF0000E676F000E666F33EC82
:101DCE0017F08DEF0EF0B95109E1150EB85DD8A0E0
:101DDE00F3EF0EF0F5EF0EF00DEF0FF0B95107E146
:101DEE00210EB85DD8B0FEEF0EF000EF0FF00DEF44
:101DFE000FF0B75107E13D0EB65DD8B009EF0FF009
:101E0E000BEF0FF0E2EF0EF0C2EF0EF0B95109E159
:101E1E00210EB85DD8A016EF0FF018EF0FF030EFCF
:101E2E000FF0B95107E12E0EB85DD8B021EF0FF0CB
:101E3E0023EF0FF030EF0FF0B75107E1510EB65D03
:101E4E00D8B02CEF0FF02EEF0FF0E2EF0EF0C2EF46
:101E5E000EF0B95109E12E0EB85DD8A039EF0FF092
:101E6E003BEF0FF048EF0FF0B75107E1610EB65D93
:101E7E00D8B044EF0FF046EF0FF0E2EF0EF0C2EFE6
:101E8E000EF08DEF0EF000EF00F0096E0950D8B491
:101E9E0053EF0FF055EF0FF077EF0FF004BE5CEF3E
:101EAE000FF05AEF0FF077EF0FF001C005F002C000
:101EBE0006F003C007F004C008F0051E061E071E3C
:101ECE00081E052A000E06220722082205C00BF066
:101EDE0006C00CF007C00DF008C00EF07FEF0FF03B
:101EEE0001C00BF002C00CF003C00DF004C00EF0E8
:101EFE000150021003100410D8A488EF0FF08AEFDF
:101F0E000FF094EF0FF0000E016E000E026E000E39
:101F1E00036E000E046E25EF10F0960E0A6E9EEF05
:101F2E000FF00A2AD8900E320D320C320B32000E00
:101F3E000B14056E000E0C14066E000E0D14076EBB
:101F4E00FE0E0E14086E0550061007100810D8A4C9
:101F5E00B3EF0FF0B5EF0FF098EF0FF0C3EF0FF0F8
:101F6E000A2A010E0B26000E0C220D220E22D890EC
:101F7E000E320D320C320B32000E0B14056E000EAB
:101F8E000C14066E000E0D14076EFF0E0E14086E66
:101F9E000550061007100810D8A4D8EF0FF0DAEF8E
:101FAE000FF0B7EF0FF0E2EF0FF00A06D8900B36F6
:101FBE000C360D360E360DBEE7EF0FF0E9EF0FF0D3
:101FCE00F1EF0FF0020E0A60EFEF0FF0F1EF0FF0EE
:101FDE00DCEF0FF00AB0F6EF0FF0F8EF0FF0F9EFBD
:101FEE000FF00D9ED8900A320AC005F0066A076AF5
:101FFE00086A05C008F0076A066A056A05500B12E2
:10200E0006500C1207500D1208500E120950D8B47B
:10201E0013EF10F015EF10F01DEF10F004BE1CEFD3
:10202E0010F01AEF10F01DEF10F00E8E0BC001F035
:10203E000CC002F00DC003F00EC004F01200000E32
:10204E00166E000E156E000E0F6E000E0E6E32EF37
:10205E0010F0084A092A010E146E08C0F6FF09C0D6
:10206E00F7FF000EF86E0800F550200AD8B442EFC4
:10207E0010F044EF10F063EF10F0F70E0A6EFF0E43
:10208E000B6E08C0F6FF09C0F7FF000EF86E0800D1
:10209E00F5500C6E0D6A0A500C260B500D220D5089
:1020AE0009E1050E0C5CD8A05FEF10F061EF10F0A7
:1020BE0063EF10F0000E146E14C010F0116A105081
:1020CE001110D8A46DEF10F06FEF10F030EF10F08C
:1020DE0079EF10F0000E0F6E010E0E6E084A092AEF
:1020EE00B2EF10F008C0F6FF09C0F7FF000EF86E51
:1020FE000800F5500A6E0B6A0B50000AD8B48AEF2E
:10210E0010F0B2EF10F00A502B0AD8B475EF10F0A1
:10211E00060AD8B471EF10F0B2EF10F015C001F04E
:10212E0016C002F0000E046E0A0E036E10EC17F0CD
:10213E0008C0F6FF09C0F7FF000EF86E0800F55054
:10214E00015E000E025A300E0124156E000E0220A2
:10215E00166E75EF10F0D00E0A6EFF0E0B6E08C0E5
:10216E00F6FF09C0F7FF000EF86E0800F5500C6E72
:10217E000D6A0A500C260B500D220D500AE10A0E64
:10218E000C5CD8A0CDEF10F0D0EF10F0010ED1EF17
:10219E0010F0000E126E136A12501310D8A4DAEF5C
:1021AE0010F0DCEF10F095EF10F00E500F10D8A4D9
:1021BE00E3EF10F0E5EF10F0F3EF10F015C00AF0BA
:1021CE0016C00BF00A1E0B1E0A4A0B2A0AC008F094
:1021DE000BC009F0F7EF10F015C008F016C009F0AB
:1021EE001200000E126E10BE01EF11F0FFEF10F094
:1021FE0013EF11F0101E0F1E0E1E0D1E0C1E0B1EC9
:10220E000A1E096C000E0A220B220C220D220E222F
:10221E000F221022010E126E08BE1AEF11F018EFE7
:10222E0011F02CEF11F0081E071E061E051E041ECF
:10223E00031E021E016C000E02220322042205223E
:10224E00062207220822010E121A20EE13F0070EA4
:10225E00DE6AE806FDE209500A100B100C100D1094
:10226E000E100F101010D8B43FEF11F041EF11F017
:10227E0093EF11F0010E116E4FEF11F0D890093659
:10228E000A360B360C360D360E360F361036112A30
:10229E0010AE54EF11F056EF11F045EF11F0D8904B
:1022AE0013361436153616361736183619361A36BC
:1022BE000950015C0A5002580B5003580C50045838
:1022CE000D5005580E5006580F500758105008580C
:1022DE00D8A074EF11F076EF11F087EF11F00950DE
:1022EE00015E0A50025A0B50035A0C50045A0D50FC
:1022FE00055A0E50065A0F50075A1050085A13809E
:10230E00D89010320F320E320D320C320B320A329E
:10231E000932112E56EF11F01250D8B499EF11F078
:10232E009BEF11F0ABEF11F01A1E191E181E171E9F
:10233E00161E151E141E136C000E142215221622C4
:10234E001722182219221A2213C001F014C002F00B
:10235E0015C003F016C004F017C005F018C006F043
:10236E0019C007F01AC008F01200000E126E08BE57
:10237E00C5EF11F0C3EF11F0D7EF11F0081E071ED5
:10238E00061E051E041E031E021E016C000E0222F6
:10239E00032204220522062207220822010E126EB3
:1023AE0010BEDEEF11F0DCEF11F0EEEF11F0101EAB
:1023BE000F1E0E1E0D1E0C1E0B1E0A1E096C000E8D
:1023CE000A220B220C220D220E220F22102209505D
:1023DE000A100B100C100D100E100F101010D8B498
:1023EE00FBEF11F0FDEF11F045EF12F0010E116E43
:1023FE000BEF12F0D89009360A360B360C360D3626
:10240E000E360F361036112A10AE10EF12F012EFF4
:10241E0012F001EF12F00950015C0A5002580B50F5
:10242E0003580C5004580D5005580E5006580F50B6
:10243E00075810500858D8A027EF12F029EF12F0C5
:10244E0039EF12F00950015E0A50025A0B50035A2E
:10245E000C50045A0D50055A0E50065A0F50075A7A
:10246E001050085AD89010320F320E320D320C32F4
:10247E000B320A320932112E12EF12F01250D8B46A
:10248E004BEF12F04DEF12F05DEF12F0081E071E2B
:10249E00061E051E041E031E021E016C000E0222E5
:1024AE0003220422052206220722082201C001F07F
:1024BE0002C002F003C003F004C004F005C005F032
:1024CE0006C006F007C007F008C008F0120043343B
:1024DE0044344A6E4A50D8A477EF12F079EF12F0D6
:1024EE0083EF12F0000E416E000E426E000E436E30
:1024FE00000E446EF0EF12F041C045F042C046F0BF
:10250E0043C047F044C048F0200E93EF12F0D8902D
:10251E004832473246324532E82E8EEF12F04550A1
:10252E00496E438EFF0E4116FF0E4216FF0E4316E6
:10253E00000E4416960E4A5E4ABEAAEF12F0A8EF9F
:10254E0012F0C0EF12F04A50800A970FD8B0B2EFD7
:10255E0012F0B4EF12F0B6EF12F079EF12F0D8904D
:10256E0044324332423241324A3EB6EF12F0D8EF95
:10257E0012F01F0E4A64C6EF12F0C8EF12F0D0EF41
:10258E0012F079EF12F0D890413642364336443687
:10259E004A064A50D8A4D6EF12F0D8EF12F0CAEF7E
:1025AE0012F04950D8B4DEEF12F0E0EF12F0E8EF7F
:1025BE0012F0441E431E421E416C000E4222432264
:1025CE00442241C041F042C042F043C043F044C0F7
:1025DE0044F0120003500410D8B4F8EF12F0FAEFE2
:1025EE0012F003EF13F003500410D8A401EF13F010
:1025FE0003EF13F008EF13F001508EEC17F055EFC8
:10260E0013F020EE04F00350D9260450DA22DE50E7
:10261E00DE10D8B415EF13F017EF13F032EF13F0FE
:10262E0020EE04F00350D9260450DA2210EE02F008
:10263E000350E1260450E222DE50E65CE650800AAA
:10264E00096EDE50800A0958D8B030EF13F032EF21
:10265E0013F055EF13F020EE02F00350D92604507C
:10266E00DA22DECF05F0DDCF06F003C0D9FF04C0BD
:10267E00DAFFDECF07F0DDCF08F005500724D96E64
:10268E0006500820DA6E01C0DFFF20EE02F0035084
:10269E00D9260450DA22DE2A000EDD221200016E47
:1026AE00030EE82EFED700F001A860EF13F062EFE4
:1026BE0013F065EF13F0868866EF13F0869801AA83
:1026CE006BEF13F06DEF13F070EF13F0868A71EF6E
:1026DE0013F0869A01AC76EF13F078EF13F07BEFE0
:1026EE0013F0868C7CEF13F0869C01AE81EF13F015
:1026FE0083EF13F086EF13F0868E87EF13F0869E2E
:10270E008782879201A08EEF13F090EF13F093EF74
:10271E0013F0868894EF13F0869801A299EF13F0C8
:10272E009BEF13F09EEF13F0868A9FEF13F0869ABD
:10273E0001A4A4EF13F0A6EF13F0A9EF13F0868C0B
:10274E00AAEF13F0869C01A6AFEF13F0B1EF13F0D2
:10275E00B4EF13F0868EB5EF13F0869E87828792C4
:10276E0012005EA0BDEF13F0BFEF13F0C9EF13F030
:10277E0013C00AF014C00BF011C00CF012C00DF013
:10278E0037EC16F016BECEEF13F0D0EF13F0D6EFF7
:10279E0013F015C01AF016C01BF0DAEF13F0000E8E
:1027AE001B6E000E1A6E000E196E000E186EECEFF8
:1027BE0013F0000E026E200E016E11C003F012C057
:1027CE0004F0F1EC12F0184A192A1A50185C19503C
:1027DE00800A176E1B50800A1758D8A0F9EF13F015
:1027EE00FBEF13F0E0EF13F05EB000EF14F002EF2A
:1027FE0014F00CEF14F013C00AF014C00BF011C05B
:10280E000CF012C00DF037EC16F013C001F014C02E
:10281E0002F095EC16F01A500124116E1B50022096
:10282E00126E1200000EF9EC16F001C04FF002C04D
:10283E0050F0000E2C6E000E2D6EC80E2E6E420E37
:10284E002F6E000E136E000E146E520E156E440E89
:10285E00166E4FC001F050C002F0036A046A000EFB
:10286E004CEC0FF001C00FF002C010F003C011F0DD
:10287E0004C012F0BCEC09F00FC028F010C029F013
:10288E0011C02AF012C02BF0A7EC07F028C041F0BF
:10289E0029C042F02AC043F02BC044F06EEC12F077
:1028AE0041C04DF042C04EF04DC04BF04EC04CF00A
:1028BE001200000E876E000E866E000E836E000EE6
:1028CE00846E000E856E000E8C6E030E886E000EEA
:1028DE00896E000E8A6E000E8B6E000E0F01266F33
:1028EE00000E216F000E196F040E2E6F030E116F66
:1028FE00000E256F000E2D6F000E186F000E106F5C
:10290E00000E206F000E2C6F000E0F6F000E176F53
:10291E00000E1F6F000E246F0E6916691E69236963
:10292E00070E2B6F0D6915691D6922690F0E2A6F2F
:10293E001200010EF9EC16F001C04FF002C050F07B
:10294E00000E136E000E146E000E156E400E166EF7
:10295E004FC001F050C002F0036A046A000E4CEC46
:10296E000FF001C00FF002C010F003C011F004C050
:10297E0012F0BCEC09F00FC041F010C042F011C0D3
:10298E0043F012C044F06EEC12F041C04DF042C064
:10299E004EF04DC04BF04EC04CF0120056C05AF0E7
:1029AE0057C05BF0000E0001616F000E606FF3EF19
:1029BE0014F054C040F055C041F05A0E426E000E55
:1029CE00436E58C044F059C045F0F8EC0CF040503E
:1029DE0000016027415061235AC0F6FF5BC0F7FF2C
:1029EE00000EF86E0800F5500009D8A401EF15F09E
:1029FE0003EF15F0E0EF14F060C054F061C055F035
:102A0E001200878420EF15F002C0F6FF03C0F7FF17
:102A1E00000EF86E0E0EF76403D00800F55005D0C8
:102A2E00F6CFE1FFF7CFE2FFE75056EC13F0024A84
:102A3E00032A02C0F6FF03C0F7FF000EF86E0E0E5B
:102A4E00F76403D00800F55005D0F6CFE1FFF7CFBD
:102A5E00E2FFE7500009D8A437EF15F039EF15F073
:102A6E000BEF15F0120087948792050E026EDE0EA4
:102A7E00E82EFED7022EFCD78688868A869C869EF6
:102A8E0087828792FA0E00D0E82EFDD78782879232
:102A9E00100EE82EFED700D087828792100EE82EF9
:102AAE00FED700D08698868A869C869E87828792DD
:102ABE00280E56EC13F00E0E56EC13F068EC17F0D1
:102ACE00060E56EC13F0120068EC17F08A0E000199
:102ADE009E6F000E9F6F480EA06F0F0EA16FACC0C1
:102AEE00A2F0ADC0A3F095EC15F0000E81EC17F03E
:102AFE00230E026E0F0E036E08EC15F0060E81EC1F
:102B0E0017F08A0E026E000E036E08EC15F0250EFD
:102B1E0088EC17F0200E88EC17F01200A20E0001C0
:102B2E00A46F000EA56F9EC0A6F09FC0A7F0000E6A
:102B3E00A96F000EA86F000EAB6F000EAA6FA60E47
:102B4E00546E000E556EA0C056F0A1C057F0A40EE4
:102B5E00586E000E596ED5EC14F00001A8519E254A
:102B6E00D96EA9519F21DA6E000EDF6E1200010E92
:102B7E00076E200E01180210D8B4C8EF15F0CAEF78
:102B8E0015F0E3EF15F0F70E036EFF0E046E01C0A5
:102B9E0005F002C006F0035005260450062206502A
:102BAE0009E1050E055CD8A0DFEF15F0E1EF15F099
:102BBE00E3EF15F0000E076E07C001F0026A120077
:102BCE008A0E00019E6F000E9F6F480EA06F0F0EB3
:102BDE00A16FACC0A2F0ADC0A3F095EC15F0000E45
:102BEE007AEC17F02B0E026E0F0E036E08EC15F03A
:102BFE00050E7AEC17F08A0E026E000E036E08ECCC
:102C0E0015F0430E88EC17F0200E88EC17F012002A
:102C1E00000E6A6E000E6B6E000E6C6E000E6D6E08
:102C2E00000E686E000E696E000E666E000E0F01CD
:102C3E005F6F000E5D6F000E5E6F000E596F000E1F
:102C4E005A6F000E5B6F000E656E000E586F000E11
:102C5E00566F000E576F840E606E000E5C6F120082
:102C6E00000E106E000E0F6E48EF16F00EC001F043
:102C7E00026A0CC003F00DC004F0F1EC12F00F4A22
:102C8E00102A0F500A24D96E10500B20DA6EDF5026
:102C9E000E6E0E50D8A456EF16F058EF16F03DEF0C
:102CAE0016F0120014BE66EF16F0145006E113046F
:102CBE00D8B064EF16F066EF16F074EF16F013C08E
:102CCE0015F014C016F0151E161E154A162A15C03C
:102CDE0013F016C014F078EF16F013C013F014C0F2
:102CEE0014F01200D00E036EFF0E046E01C005F03C
:102CFE0002C006F0035005260450062206500AE1D3
:102D0E000A0E055CD8A08EEF16F091EF16F0010EAC
:102D1E0092EF16F0000E016E026A120001C003F06F
:102D2E0002C004F09DEF16F0014A022A01C0D9FF3D
:102D3E0002C0DAFFDF50D8A4A7EF16F0A9EF16F005
:102D4E009BEF16F00350015C016E04500258026EA8
:102D5E001200AEC0ACF0AFC0ADF06BEC15F0B4C06D
:102D6E0004F0B5C005F0E1EC16F0B0C0ACF0B1C0A7
:102D7E00ADF0E7EC15F0B2C004F0B3C005F0C9EC4D
:102D8E0016F0120004040510D8A4D0EF16F0D2EFFE
:102D9E0016F0DAEF16F0380E026E0F0E036E08EC18
:102DAE0015F0E0EF16F0320E026E0F0E036E08EC09
:102DBE0015F0120004500510D8A4E8EF16F0EAEF53
:102DCE0016F0F2EF16F0430E026E0F0E036E08ECC5
:102DDE0015F0F8EF16F03E0E026E0F0E036E08ECB5
:102DEE0015F01200056E05C05FFF608E609C60805E
:102DFE0060B004EF17F006EF17F0FFEF16F0645017
:102E0E00046E036A63500324016E000E0420026EEA
:102E1E00120001500302F3CF05F0F4CF06F001507B
:102E2E000402F350062602500302F350062605C094
:102E3E0001F006C002F01200000168516911D8A419
:102E4E002BEF17F02DEF17F032EF17F0000E696F22
:102E5E00010E686F84821200000168056911D8A402
:102E6E003BEF17F03DEF17F042EF17F0000E696FD2
:102E7E00000E686F84921200000E0E01E16F000EBC
:102E8E00E26F000EE36F000EE46F000EE56F000EB2
:102E9E00E66F1200600E0E01D86F000EDA6F000E94
:102EAE00DC6F000EDE6F000EDD6F120000EE60F0C4
:102EBE003E0EEE6AE806FDE15F6A5E6A00015EEFB5
:102ECE000EF08794010E56EC13F0A60EE82EFED7E8
:102EDE0000D0120043EC17F060EC14F051EC17F038
:102EEE000FEC16F01200026E87940250C00F56ECD3
:102EFE0013F01200026E87940250800F56EC13F0FE
:102F0E001200026E8784025056EC13F0120012006B
:020000040020DA
:10000000FF0FFF0FFF0FFF0FFF0FFF0FFF0FFF0F80
:020000040030CA
:0C000000ECFFFFFF9FFFFFFFFFFFFFFF73
:00000001FF
